{
  "_format": "hh-sol-artifact-1",
  "contractName": "SingleTask",
  "sourceName": "contracts/SingleTask.sol",
  "abi": [
    {
      "inputs": [],
      "name": "AccessControlBadConfirmation",
      "type": "error"
    },
    {
      "inputs": [
        {
          "internalType": "address",
          "name": "account",
          "type": "address"
        },
        {
          "internalType": "bytes32",
          "name": "neededRole",
          "type": "bytes32"
        }
      ],
      "name": "AccessControlUnauthorizedAccount",
      "type": "error"
    },
    {
      "inputs": [
        {
          "internalType": "address",
          "name": "target",
          "type": "address"
        }
      ],
      "name": "AddressEmptyCode",
      "type": "error"
    },
    {
      "inputs": [
        {
          "internalType": "address",
          "name": "account",
          "type": "address"
        }
      ],
      "name": "AddressInsufficientBalance",
      "type": "error"
    },
    {
      "inputs": [
        {
          "internalType": "address",
          "name": "implementation",
          "type": "address"
        }
      ],
      "name": "ERC1967InvalidImplementation",
      "type": "error"
    },
    {
      "inputs": [],
      "name": "ERC1967NonPayable",
      "type": "error"
    },
    {
      "inputs": [],
      "name": "FailedInnerCall",
      "type": "error"
    },
    {
      "inputs": [],
      "name": "InvalidInitialization",
      "type": "error"
    },
    {
      "inputs": [],
      "name": "NotInitializing",
      "type": "error"
    },
    {
      "inputs": [
        {
          "internalType": "address",
          "name": "owner",
          "type": "address"
        }
      ],
      "name": "OwnableInvalidOwner",
      "type": "error"
    },
    {
      "inputs": [
        {
          "internalType": "address",
          "name": "account",
          "type": "address"
        }
      ],
      "name": "OwnableUnauthorizedAccount",
      "type": "error"
    },
    {
      "inputs": [],
      "name": "ReentrancyGuardReentrantCall",
      "type": "error"
    },
    {
      "inputs": [
        {
          "internalType": "address",
          "name": "token",
          "type": "address"
        }
      ],
      "name": "SafeERC20FailedOperation",
      "type": "error"
    },
    {
      "inputs": [],
      "name": "UUPSUnauthorizedCallContext",
      "type": "error"
    },
    {
      "inputs": [
        {
          "internalType": "bytes32",
          "name": "slot",
          "type": "bytes32"
        }
      ],
      "name": "UUPSUnsupportedProxiableUUID",
      "type": "error"
    },
    {
      "anonymous": false,
      "inputs": [
        {
          "indexed": false,
          "internalType": "uint256",
          "name": "taskId",
          "type": "uint256"
        },
        {
          "indexed": false,
          "internalType": "address",
          "name": "employer",
          "type": "address"
        },
        {
          "indexed": false,
          "internalType": "enum TaskStatus",
          "name": "status",
          "type": "uint8"
        },
        {
          "indexed": false,
          "internalType": "enum TaskerStatus",
          "name": "taskerStatus",
          "type": "uint8"
        }
      ],
      "name": "AcceptTask",
      "type": "event"
    },
    {
      "anonymous": false,
      "inputs": [
        {
          "indexed": false,
          "internalType": "uint256",
          "name": "taskId",
          "type": "uint256"
        },
        {
          "indexed": false,
          "internalType": "address",
          "name": "employer",
          "type": "address"
        },
        {
          "indexed": false,
          "internalType": "enum TaskStatus",
          "name": "status",
          "type": "uint8"
        },
        {
          "indexed": false,
          "internalType": "enum TaskerStatus",
          "name": "taskerStatus",
          "type": "uint8"
        }
      ],
      "name": "CloseTask",
      "type": "event"
    },
    {
      "anonymous": false,
      "inputs": [
        {
          "indexed": false,
          "internalType": "uint256",
          "name": "taskId",
          "type": "uint256"
        },
        {
          "indexed": false,
          "internalType": "address",
          "name": "tasker",
          "type": "address"
        },
        {
          "indexed": false,
          "internalType": "uint256",
          "name": "rewardAmount",
          "type": "uint256"
        },
        {
          "indexed": false,
          "internalType": "enum TaskStatus",
          "name": "status",
          "type": "uint8"
        },
        {
          "indexed": false,
          "internalType": "enum TaskerStatus",
          "name": "taskerStatus",
          "type": "uint8"
        }
      ],
      "name": "EvaluateTask",
      "type": "event"
    },
    {
      "anonymous": false,
      "inputs": [
        {
          "indexed": false,
          "internalType": "uint256",
          "name": "taskId",
          "type": "uint256"
        },
        {
          "indexed": false,
          "internalType": "address",
          "name": "operator",
          "type": "address"
        }
      ],
      "name": "ForceCloseTask",
      "type": "event"
    },
    {
      "anonymous": false,
      "inputs": [
        {
          "indexed": false,
          "internalType": "uint64",
          "name": "version",
          "type": "uint64"
        }
      ],
      "name": "Initialized",
      "type": "event"
    },
    {
      "anonymous": false,
      "inputs": [
        {
          "indexed": true,
          "internalType": "address",
          "name": "previousOwner",
          "type": "address"
        },
        {
          "indexed": true,
          "internalType": "address",
          "name": "newOwner",
          "type": "address"
        }
      ],
      "name": "OwnershipTransferred",
      "type": "event"
    },
    {
      "anonymous": false,
      "inputs": [
        {
          "indexed": false,
          "internalType": "uint256",
          "name": "taskId",
          "type": "uint256"
        },
        {
          "indexed": false,
          "internalType": "address",
          "name": "employer",
          "type": "address"
        },
        {
          "indexed": false,
          "internalType": "address",
          "name": "stakedToken",
          "type": "address"
        },
        {
          "indexed": false,
          "internalType": "enum TaskStatus",
          "name": "status",
          "type": "uint8"
        }
      ],
      "name": "PublishTask",
      "type": "event"
    },
    {
      "anonymous": false,
      "inputs": [
        {
          "indexed": true,
          "internalType": "bytes32",
          "name": "role",
          "type": "bytes32"
        },
        {
          "indexed": true,
          "internalType": "bytes32",
          "name": "previousAdminRole",
          "type": "bytes32"
        },
        {
          "indexed": true,
          "internalType": "bytes32",
          "name": "newAdminRole",
          "type": "bytes32"
        }
      ],
      "name": "RoleAdminChanged",
      "type": "event"
    },
    {
      "anonymous": false,
      "inputs": [
        {
          "indexed": true,
          "internalType": "bytes32",
          "name": "role",
          "type": "bytes32"
        },
        {
          "indexed": true,
          "internalType": "address",
          "name": "account",
          "type": "address"
        },
        {
          "indexed": true,
          "internalType": "address",
          "name": "sender",
          "type": "address"
        }
      ],
      "name": "RoleGranted",
      "type": "event"
    },
    {
      "anonymous": false,
      "inputs": [
        {
          "indexed": true,
          "internalType": "bytes32",
          "name": "role",
          "type": "bytes32"
        },
        {
          "indexed": true,
          "internalType": "address",
          "name": "account",
          "type": "address"
        },
        {
          "indexed": true,
          "internalType": "address",
          "name": "sender",
          "type": "address"
        }
      ],
      "name": "RoleRevoked",
      "type": "event"
    },
    {
      "anonymous": false,
      "inputs": [
        {
          "indexed": false,
          "internalType": "uint256",
          "name": "taskId",
          "type": "uint256"
        },
        {
          "indexed": false,
          "internalType": "address",
          "name": "employer",
          "type": "address"
        },
        {
          "indexed": false,
          "internalType": "address",
          "name": "tasker",
          "type": "address"
        },
        {
          "indexed": false,
          "internalType": "enum TaskStatus",
          "name": "status",
          "type": "uint8"
        },
        {
          "indexed": false,
          "internalType": "enum TaskerStatus",
          "name": "taskerStatus",
          "type": "uint8"
        }
      ],
      "name": "SignTask",
      "type": "event"
    },
    {
      "anonymous": false,
      "inputs": [
        {
          "indexed": false,
          "internalType": "uint256",
          "name": "taskId",
          "type": "uint256"
        },
        {
          "indexed": false,
          "internalType": "address",
          "name": "tasker",
          "type": "address"
        },
        {
          "indexed": false,
          "internalType": "enum TaskStatus",
          "name": "status",
          "type": "uint8"
        },
        {
          "indexed": false,
          "internalType": "enum TaskerStatus",
          "name": "taskerStatus",
          "type": "uint8"
        }
      ],
      "name": "StartTask",
      "type": "event"
    },
    {
      "anonymous": false,
      "inputs": [
        {
          "indexed": false,
          "internalType": "uint256",
          "name": "taskId",
          "type": "uint256"
        },
        {
          "indexed": false,
          "internalType": "address",
          "name": "tasker",
          "type": "address"
        },
        {
          "indexed": false,
          "internalType": "enum TaskStatus",
          "name": "status",
          "type": "uint8"
        },
        {
          "indexed": false,
          "internalType": "enum TaskerStatus",
          "name": "taskerStatus",
          "type": "uint8"
        }
      ],
      "name": "SubmitTask",
      "type": "event"
    },
    {
      "anonymous": false,
      "inputs": [
        {
          "indexed": true,
          "internalType": "address",
          "name": "implementation",
          "type": "address"
        }
      ],
      "name": "Upgraded",
      "type": "event"
    },
    {
      "anonymous": false,
      "inputs": [
        {
          "indexed": false,
          "internalType": "uint256",
          "name": "taskId",
          "type": "uint256"
        },
        {
          "indexed": false,
          "internalType": "address",
          "name": "tasker",
          "type": "address"
        },
        {
          "indexed": false,
          "internalType": "uint256",
          "name": "fee",
          "type": "uint256"
        },
        {
          "indexed": false,
          "internalType": "uint256",
          "name": "withdrawAmount",
          "type": "uint256"
        }
      ],
      "name": "WithdrawReward",
      "type": "event"
    },
    {
      "anonymous": false,
      "inputs": [
        {
          "indexed": false,
          "internalType": "uint256",
          "name": "taskId",
          "type": "uint256"
        },
        {
          "indexed": false,
          "internalType": "address",
          "name": "tasker",
          "type": "address"
        },
        {
          "indexed": false,
          "internalType": "uint256",
          "name": "amount",
          "type": "uint256"
        }
      ],
      "name": "WithdrawStakedToken",
      "type": "event"
    },
    {
      "inputs": [],
      "name": "DEFAULT_ADMIN_ROLE",
      "outputs": [
        {
          "internalType": "bytes32",
          "name": "",
          "type": "bytes32"
        }
      ],
      "stateMutability": "view",
      "type": "function"
    },
    {
      "inputs": [
        {
          "internalType": "uint256",
          "name": "taskId",
          "type": "uint256"
        }
      ],
      "name": "ForceCloseTimeoutTask",
      "outputs": [],
      "stateMutability": "nonpayable",
      "type": "function"
    },
    {
      "inputs": [],
      "name": "OPERATOR_ROLE",
      "outputs": [
        {
          "internalType": "bytes32",
          "name": "",
          "type": "bytes32"
        }
      ],
      "stateMutability": "view",
      "type": "function"
    },
    {
      "inputs": [],
      "name": "UPGRADE_INTERFACE_VERSION",
      "outputs": [
        {
          "internalType": "string",
          "name": "",
          "type": "string"
        }
      ],
      "stateMutability": "view",
      "type": "function"
    },
    {
      "inputs": [
        {
          "internalType": "uint256",
          "name": "taskId",
          "type": "uint256"
        }
      ],
      "name": "acceptTask",
      "outputs": [],
      "stateMutability": "nonpayable",
      "type": "function"
    },
    {
      "inputs": [
        {
          "internalType": "address",
          "name": "",
          "type": "address"
        }
      ],
      "name": "acceptedTokens",
      "outputs": [
        {
          "internalType": "bool",
          "name": "",
          "type": "bool"
        }
      ],
      "stateMutability": "view",
      "type": "function"
    },
    {
      "inputs": [
        {
          "internalType": "uint256",
          "name": "taskId",
          "type": "uint256"
        }
      ],
      "name": "closeTask",
      "outputs": [],
      "stateMutability": "nonpayable",
      "type": "function"
    },
    {
      "inputs": [],
      "name": "defaultConfig",
      "outputs": [
        {
          "internalType": "uint256",
          "name": "taskerStakeRate",
          "type": "uint256"
        },
        {
          "internalType": "uint256",
          "name": "notSignedWithdrawDuration",
          "type": "uint256"
        },
        {
          "internalType": "uint256",
          "name": "rewardFeeRate",
          "type": "uint256"
        },
        {
          "internalType": "uint256",
          "name": "rewardWithdrawDuration",
          "type": "uint256"
        },
        {
          "internalType": "address",
          "name": "feeWallet",
          "type": "address"
        },
        {
          "internalType": "address",
          "name": "stakedToken",
          "type": "address"
        }
      ],
      "stateMutability": "view",
      "type": "function"
    },
    {
      "inputs": [
        {
          "internalType": "uint256",
          "name": "",
          "type": "uint256"
        },
        {
          "internalType": "address",
          "name": "",
          "type": "address"
        }
      ],
      "name": "employerMap",
      "outputs": [
        {
          "internalType": "uint256",
          "name": "taskId",
          "type": "uint256"
        },
        {
          "internalType": "address",
          "name": "stakedAddr",
          "type": "address"
        },
        {
          "internalType": "uint256",
          "name": "stakedAmount",
          "type": "uint256"
        },
        {
          "internalType": "uint256",
          "name": "availableAmount",
          "type": "uint256"
        },
        {
          "internalType": "uint256",
          "name": "unlockTime",
          "type": "uint256"
        },
        {
          "internalType": "uint256",
          "name": "unlockDuration",
          "type": "uint256"
        }
      ],
      "stateMutability": "view",
      "type": "function"
    },
    {
      "inputs": [
        {
          "internalType": "uint256",
          "name": "taskId",
          "type": "uint256"
        },
        {
          "internalType": "uint256",
          "name": "rewardAmount",
          "type": "uint256"
        }
      ],
      "name": "evaluateTask",
      "outputs": [],
      "stateMutability": "nonpayable",
      "type": "function"
    },
    {
      "inputs": [
        {
          "internalType": "uint256",
          "name": "taskId",
          "type": "uint256"
        }
      ],
      "name": "forceClosedTask",
      "outputs": [],
      "stateMutability": "nonpayable",
      "type": "function"
    },
    {
      "inputs": [
        {
          "internalType": "address",
          "name": "token",
          "type": "address"
        }
      ],
      "name": "getAcceptedTokens",
      "outputs": [
        {
          "internalType": "bool",
          "name": "",
          "type": "bool"
        }
      ],
      "stateMutability": "view",
      "type": "function"
    },
    {
      "inputs": [
        {
          "internalType": "uint256",
          "name": "taskId",
          "type": "uint256"
        }
      ],
      "name": "getConfig",
      "outputs": [
        {
          "components": [
            {
              "internalType": "uint256",
              "name": "taskerStakeRate",
              "type": "uint256"
            },
            {
              "internalType": "uint256",
              "name": "notSignedWithdrawDuration",
              "type": "uint256"
            },
            {
              "internalType": "uint256",
              "name": "rewardFeeRate",
              "type": "uint256"
            },
            {
              "internalType": "uint256",
              "name": "rewardWithdrawDuration",
              "type": "uint256"
            },
            {
              "internalType": "address",
              "name": "feeWallet",
              "type": "address"
            },
            {
              "internalType": "address",
              "name": "stakedToken",
              "type": "address"
            }
          ],
          "internalType": "struct Config",
          "name": "",
          "type": "tuple"
        }
      ],
      "stateMutability": "view",
      "type": "function"
    },
    {
      "inputs": [
        {
          "internalType": "uint256",
          "name": "taskId",
          "type": "uint256"
        },
        {
          "internalType": "address",
          "name": "employer",
          "type": "address"
        }
      ],
      "name": "getEmployer",
      "outputs": [
        {
          "components": [
            {
              "internalType": "uint256",
              "name": "taskId",
              "type": "uint256"
            },
            {
              "internalType": "address",
              "name": "stakedAddr",
              "type": "address"
            },
            {
              "internalType": "uint256",
              "name": "stakedAmount",
              "type": "uint256"
            },
            {
              "internalType": "uint256",
              "name": "availableAmount",
              "type": "uint256"
            },
            {
              "internalType": "uint256",
              "name": "unlockTime",
              "type": "uint256"
            },
            {
              "internalType": "uint256",
              "name": "unlockDuration",
              "type": "uint256"
            }
          ],
          "internalType": "struct EmployerStakedInfo",
          "name": "",
          "type": "tuple"
        }
      ],
      "stateMutability": "view",
      "type": "function"
    },
    {
      "inputs": [
        {
          "internalType": "bytes32",
          "name": "role",
          "type": "bytes32"
        }
      ],
      "name": "getRoleAdmin",
      "outputs": [
        {
          "internalType": "bytes32",
          "name": "",
          "type": "bytes32"
        }
      ],
      "stateMutability": "view",
      "type": "function"
    },
    {
      "inputs": [
        {
          "internalType": "uint256",
          "name": "taskId",
          "type": "uint256"
        }
      ],
      "name": "getTask",
      "outputs": [
        {
          "components": [
            {
              "internalType": "uint256",
              "name": "taskId",
              "type": "uint256"
            },
            {
              "internalType": "address",
              "name": "employer",
              "type": "address"
            },
            {
              "internalType": "address[]",
              "name": "taskers",
              "type": "address[]"
            },
            {
              "internalType": "address",
              "name": "taskerMatched",
              "type": "address"
            },
            {
              "internalType": "uint256",
              "name": "amount",
              "type": "uint256"
            },
            {
              "internalType": "uint256",
              "name": "evaluatingTime",
              "type": "uint256"
            },
            {
              "internalType": "enum TaskStatus",
              "name": "status",
              "type": "uint8"
            },
            {
              "components": [
                {
                  "internalType": "uint256",
                  "name": "taskerStakeRate",
                  "type": "uint256"
                },
                {
                  "internalType": "uint256",
                  "name": "notSignedWithdrawDuration",
                  "type": "uint256"
                },
                {
                  "internalType": "uint256",
                  "name": "rewardFeeRate",
                  "type": "uint256"
                },
                {
                  "internalType": "uint256",
                  "name": "rewardWithdrawDuration",
                  "type": "uint256"
                },
                {
                  "internalType": "address",
                  "name": "feeWallet",
                  "type": "address"
                },
                {
                  "internalType": "address",
                  "name": "stakedToken",
                  "type": "address"
                }
              ],
              "internalType": "struct Config",
              "name": "config",
              "type": "tuple"
            }
          ],
          "internalType": "struct Task",
          "name": "",
          "type": "tuple"
        }
      ],
      "stateMutability": "view",
      "type": "function"
    },
    {
      "inputs": [
        {
          "internalType": "uint256",
          "name": "taskId",
          "type": "uint256"
        },
        {
          "internalType": "address",
          "name": "tasker",
          "type": "address"
        }
      ],
      "name": "getTasker",
      "outputs": [
        {
          "components": [
            {
              "internalType": "uint256",
              "name": "taskId",
              "type": "uint256"
            },
            {
              "internalType": "address",
              "name": "stakedAddr",
              "type": "address"
            },
            {
              "internalType": "uint256",
              "name": "stakedAmount",
              "type": "uint256"
            },
            {
              "internalType": "uint256",
              "name": "rewardAmount",
              "type": "uint256"
            },
            {
              "internalType": "uint256",
              "name": "unlockTime",
              "type": "uint256"
            },
            {
              "internalType": "uint256",
              "name": "unlockDuration",
              "type": "uint256"
            },
            {
              "internalType": "bool",
              "name": "isWithdrawed",
              "type": "bool"
            },
            {
              "internalType": "enum TaskerStatus",
              "name": "status",
              "type": "uint8"
            }
          ],
          "internalType": "struct TaskStakedInfo",
          "name": "",
          "type": "tuple"
        }
      ],
      "stateMutability": "view",
      "type": "function"
    },
    {
      "inputs": [
        {
          "internalType": "bytes32",
          "name": "role",
          "type": "bytes32"
        },
        {
          "internalType": "address",
          "name": "account",
          "type": "address"
        }
      ],
      "name": "grantRole",
      "outputs": [],
      "stateMutability": "nonpayable",
      "type": "function"
    },
    {
      "inputs": [
        {
          "internalType": "bytes32",
          "name": "role",
          "type": "bytes32"
        },
        {
          "internalType": "address",
          "name": "account",
          "type": "address"
        }
      ],
      "name": "hasRole",
      "outputs": [
        {
          "internalType": "bool",
          "name": "",
          "type": "bool"
        }
      ],
      "stateMutability": "view",
      "type": "function"
    },
    {
      "inputs": [
        {
          "internalType": "address",
          "name": "stakedToken",
          "type": "address"
        }
      ],
      "name": "initialize",
      "outputs": [],
      "stateMutability": "nonpayable",
      "type": "function"
    },
    {
      "inputs": [],
      "name": "owner",
      "outputs": [
        {
          "internalType": "address",
          "name": "",
          "type": "address"
        }
      ],
      "stateMutability": "view",
      "type": "function"
    },
    {
      "inputs": [],
      "name": "proxiableUUID",
      "outputs": [
        {
          "internalType": "bytes32",
          "name": "",
          "type": "bytes32"
        }
      ],
      "stateMutability": "view",
      "type": "function"
    },
    {
      "inputs": [
        {
          "internalType": "uint256",
          "name": "taskId",
          "type": "uint256"
        }
      ],
      "name": "publishTask",
      "outputs": [],
      "stateMutability": "nonpayable",
      "type": "function"
    },
    {
      "inputs": [],
      "name": "renounceOwnership",
      "outputs": [],
      "stateMutability": "nonpayable",
      "type": "function"
    },
    {
      "inputs": [
        {
          "internalType": "bytes32",
          "name": "role",
          "type": "bytes32"
        },
        {
          "internalType": "address",
          "name": "callerConfirmation",
          "type": "address"
        }
      ],
      "name": "renounceRole",
      "outputs": [],
      "stateMutability": "nonpayable",
      "type": "function"
    },
    {
      "inputs": [
        {
          "internalType": "bytes32",
          "name": "role",
          "type": "bytes32"
        },
        {
          "internalType": "address",
          "name": "account",
          "type": "address"
        }
      ],
      "name": "revokeRole",
      "outputs": [],
      "stateMutability": "nonpayable",
      "type": "function"
    },
    {
      "inputs": [
        {
          "internalType": "uint256",
          "name": "taskId",
          "type": "uint256"
        },
        {
          "internalType": "address",
          "name": "tasker",
          "type": "address"
        },
        {
          "internalType": "uint256",
          "name": "rewardAmount",
          "type": "uint256"
        }
      ],
      "name": "rewardTasker",
      "outputs": [],
      "stateMutability": "nonpayable",
      "type": "function"
    },
    {
      "inputs": [
        {
          "internalType": "address",
          "name": "token",
          "type": "address"
        },
        {
          "internalType": "bool",
          "name": "accepted",
          "type": "bool"
        }
      ],
      "name": "setAcceptedTokens",
      "outputs": [],
      "stateMutability": "nonpayable",
      "type": "function"
    },
    {
      "inputs": [
        {
          "internalType": "uint256",
          "name": "taskId",
          "type": "uint256"
        },
        {
          "components": [
            {
              "internalType": "uint256",
              "name": "taskerStakeRate",
              "type": "uint256"
            },
            {
              "internalType": "uint256",
              "name": "notSignedWithdrawDuration",
              "type": "uint256"
            },
            {
              "internalType": "uint256",
              "name": "rewardFeeRate",
              "type": "uint256"
            },
            {
              "internalType": "uint256",
              "name": "rewardWithdrawDuration",
              "type": "uint256"
            },
            {
              "internalType": "address",
              "name": "feeWallet",
              "type": "address"
            },
            {
              "internalType": "address",
              "name": "stakedToken",
              "type": "address"
            }
          ],
          "internalType": "struct Config",
          "name": "config",
          "type": "tuple"
        }
      ],
      "name": "setConfig",
      "outputs": [],
      "stateMutability": "nonpayable",
      "type": "function"
    },
    {
      "inputs": [
        {
          "components": [
            {
              "internalType": "uint256",
              "name": "taskerStakeRate",
              "type": "uint256"
            },
            {
              "internalType": "uint256",
              "name": "notSignedWithdrawDuration",
              "type": "uint256"
            },
            {
              "internalType": "uint256",
              "name": "rewardFeeRate",
              "type": "uint256"
            },
            {
              "internalType": "uint256",
              "name": "rewardWithdrawDuration",
              "type": "uint256"
            },
            {
              "internalType": "address",
              "name": "feeWallet",
              "type": "address"
            },
            {
              "internalType": "address",
              "name": "stakedToken",
              "type": "address"
            }
          ],
          "internalType": "struct Config",
          "name": "config",
          "type": "tuple"
        }
      ],
      "name": "setDefaultConfig",
      "outputs": [],
      "stateMutability": "nonpayable",
      "type": "function"
    },
    {
      "inputs": [
        {
          "internalType": "uint256",
          "name": "taskId",
          "type": "uint256"
        },
        {
          "internalType": "address",
          "name": "tasker",
          "type": "address"
        }
      ],
      "name": "signTask",
      "outputs": [],
      "stateMutability": "nonpayable",
      "type": "function"
    },
    {
      "inputs": [
        {
          "internalType": "uint256",
          "name": "taskId",
          "type": "uint256"
        }
      ],
      "name": "startTask",
      "outputs": [],
      "stateMutability": "nonpayable",
      "type": "function"
    },
    {
      "inputs": [
        {
          "internalType": "uint256",
          "name": "taskId",
          "type": "uint256"
        }
      ],
      "name": "submitTask",
      "outputs": [],
      "stateMutability": "nonpayable",
      "type": "function"
    },
    {
      "inputs": [
        {
          "internalType": "bytes4",
          "name": "interfaceId",
          "type": "bytes4"
        }
      ],
      "name": "supportsInterface",
      "outputs": [
        {
          "internalType": "bool",
          "name": "",
          "type": "bool"
        }
      ],
      "stateMutability": "view",
      "type": "function"
    },
    {
      "inputs": [
        {
          "internalType": "uint256",
          "name": "",
          "type": "uint256"
        },
        {
          "internalType": "address",
          "name": "",
          "type": "address"
        }
      ],
      "name": "taskerMap",
      "outputs": [
        {
          "internalType": "uint256",
          "name": "taskId",
          "type": "uint256"
        },
        {
          "internalType": "address",
          "name": "stakedAddr",
          "type": "address"
        },
        {
          "internalType": "uint256",
          "name": "stakedAmount",
          "type": "uint256"
        },
        {
          "internalType": "uint256",
          "name": "rewardAmount",
          "type": "uint256"
        },
        {
          "internalType": "uint256",
          "name": "unlockTime",
          "type": "uint256"
        },
        {
          "internalType": "uint256",
          "name": "unlockDuration",
          "type": "uint256"
        },
        {
          "internalType": "bool",
          "name": "isWithdrawed",
          "type": "bool"
        },
        {
          "internalType": "enum TaskerStatus",
          "name": "status",
          "type": "uint8"
        }
      ],
      "stateMutability": "view",
      "type": "function"
    },
    {
      "inputs": [
        {
          "internalType": "uint256",
          "name": "",
          "type": "uint256"
        }
      ],
      "name": "tasks",
      "outputs": [
        {
          "internalType": "uint256",
          "name": "taskId",
          "type": "uint256"
        },
        {
          "internalType": "address",
          "name": "employer",
          "type": "address"
        },
        {
          "internalType": "address",
          "name": "taskerMatched",
          "type": "address"
        },
        {
          "internalType": "uint256",
          "name": "amount",
          "type": "uint256"
        },
        {
          "internalType": "uint256",
          "name": "evaluatingTime",
          "type": "uint256"
        },
        {
          "internalType": "enum TaskStatus",
          "name": "status",
          "type": "uint8"
        },
        {
          "components": [
            {
              "internalType": "uint256",
              "name": "taskerStakeRate",
              "type": "uint256"
            },
            {
              "internalType": "uint256",
              "name": "notSignedWithdrawDuration",
              "type": "uint256"
            },
            {
              "internalType": "uint256",
              "name": "rewardFeeRate",
              "type": "uint256"
            },
            {
              "internalType": "uint256",
              "name": "rewardWithdrawDuration",
              "type": "uint256"
            },
            {
              "internalType": "address",
              "name": "feeWallet",
              "type": "address"
            },
            {
              "internalType": "address",
              "name": "stakedToken",
              "type": "address"
            }
          ],
          "internalType": "struct Config",
          "name": "config",
          "type": "tuple"
        }
      ],
      "stateMutability": "view",
      "type": "function"
    },
    {
      "inputs": [],
      "name": "totalStakedAmount",
      "outputs": [
        {
          "internalType": "uint256",
          "name": "",
          "type": "uint256"
        }
      ],
      "stateMutability": "view",
      "type": "function"
    },
    {
      "inputs": [],
      "name": "totalTaskAmount",
      "outputs": [
        {
          "internalType": "uint256",
          "name": "",
          "type": "uint256"
        }
      ],
      "stateMutability": "view",
      "type": "function"
    },
    {
      "inputs": [
        {
          "internalType": "address",
          "name": "newOwner",
          "type": "address"
        }
      ],
      "name": "transferOwnership",
      "outputs": [],
      "stateMutability": "nonpayable",
      "type": "function"
    },
    {
      "inputs": [
        {
          "internalType": "address",
          "name": "newImplementation",
          "type": "address"
        },
        {
          "internalType": "bytes",
          "name": "data",
          "type": "bytes"
        }
      ],
      "name": "upgradeToAndCall",
      "outputs": [],
      "stateMutability": "payable",
      "type": "function"
    },
    {
      "inputs": [
        {
          "internalType": "address",
          "name": "",
          "type": "address"
        }
      ],
      "name": "userStakedAmount",
      "outputs": [
        {
          "internalType": "uint256",
          "name": "",
          "type": "uint256"
        }
      ],
      "stateMutability": "view",
      "type": "function"
    },
    {
      "inputs": [
        {
          "internalType": "uint256",
          "name": "taskId",
          "type": "uint256"
        }
      ],
      "name": "withdrawReward",
      "outputs": [],
      "stateMutability": "nonpayable",
      "type": "function"
    },
    {
      "inputs": [
        {
          "internalType": "uint256",
          "name": "taskId",
          "type": "uint256"
        }
      ],
      "name": "withdrawStakedToken",
      "outputs": [],
      "stateMutability": "nonpayable",
      "type": "function"
    },
    {
      "inputs": [
        {
          "internalType": "address",
          "name": "_token",
          "type": "address"
        },
        {
          "internalType": "address",
          "name": "_to",
          "type": "address"
        }
      ],
      "name": "withdrawStuckToken",
      "outputs": [],
      "stateMutability": "nonpayable",
      "type": "function"
    }
  ],
  "bytecode": "0x60a06040523060805234801561001457600080fd5b5060805161455a61003e60003960008181613387015281816133b00152613588015261455a6000f3fe6080604052600436106102675760003560e01c806382dc4a0511610144578063ba9ee7b5116100b6578063cfac54251161007a578063cfac5425146109c6578063d547741f146109e6578063e630911d14610a06578063e8bcbf4114610a26578063f2fde38b14610a53578063f5b541a614610a7357600080fd5b8063ba9ee7b514610926578063bc205ad314610946578063c1dc5ae614610966578063c4d66de814610986578063cc71eefd146109a657600080fd5b80639e09ed5f116101085780639e09ed5f146107f6578063a217fddf14610866578063a81b2f8d1461087b578063ad3cb1cc146108a8578063af3885e5146108e6578063b807adbc1461090657600080fd5b806382dc4a05146106715780638d977672146106a15780638da5cb5b146107625780638e4647ee146107a957806391d14854146107d657600080fd5b806336568abe116101dd5780635400d3a3116101a15780635400d3a3146105ad578063567e98f9146105e65780635a1aa83b146105fc5780635f9443261461061c578063715018a61461063c578063796333761461065157600080fd5b806336568abe146104d557806349c6c734146104f55780634f1ef28614610565578063523a3f081461057857806352d1902d1461059857600080fd5b8063248a9ca31161022f578063248a9ca3146103305780632547aed41461035e57806329141243146103e85780632d1130e71461047f5780632f2ff15d1461049557806330a939fe146104b557600080fd5b806301ffc9a71461026c57806302e39caf146102a15780631201dfc6146102c35780631bf6912d146102e35780631d65e77e14610303575b600080fd5b34801561027857600080fd5b5061028c610287366004613b68565b610a95565b60405190151581526020015b60405180910390f35b3480156102ad57600080fd5b506102c16102bc366004613bbc565b610acc565b005b3480156102cf57600080fd5b506102c16102de366004613bf3565b610b10565b3480156102ef57600080fd5b506102c16102fe366004613bf3565b610d29565b34801561030f57600080fd5b5061032361031e366004613bf3565b610f32565b6040516102989190613c93565b34801561033c57600080fd5b5061035061034b366004613bf3565b611081565b604051908152602001610298565b34801561036a57600080fd5b506103d4610379366004613d5d565b60046020818152600093845260408085209091529183529120805460018201546002830154600384015494840154600585015460069095015493956001600160a01b0390931694919390919060ff8082169161010090041688565b604051610298989796959493929190613d89565b3480156103f457600080fd5b5061044a610403366004613d5d565b6005602081815260009384526040808520909152918352912080546001820154600283015460038401546004850154949095015492946001600160a01b0390921693909286565b604080519687526001600160a01b039095166020870152938501929092526060840152608083015260a082015260c001610298565b34801561048b57600080fd5b5061035060015481565b3480156104a157600080fd5b506102c16104b0366004613d5d565b6110a3565b3480156104c157600080fd5b506102c16104d0366004613bf3565b6110c5565b3480156104e157600080fd5b506102c16104f0366004613d5d565b6112de565b34801561050157600080fd5b50610515610510366004613d5d565b611316565b6040516102989190815181526020808301516001600160a01b03169082015260408083015190820152606080830151908201526080808301519082015260a0918201519181019190915260c00190565b6102c1610573366004613e27565b6113c3565b34801561058457600080fd5b506102c1610593366004613bf3565b6113e2565b3480156105a457600080fd5b5061035061170d565b3480156105b957600080fd5b5061028c6105c8366004613ecd565b6001600160a01b031660009081526006602052604090205460ff1690565b3480156105f257600080fd5b5061035060005481565b34801561060857600080fd5b506102c1610617366004613bf3565b61172a565b34801561062857600080fd5b506102c1610637366004613bf3565b61195d565b34801561064857600080fd5b506102c1611b64565b34801561065d57600080fd5b506102c161066c366004613f70565b611b78565b34801561067d57600080fd5b5061028c61068c366004613ecd565b60066020526000908152604090205460ff1681565b3480156106ad57600080fd5b5061074f6106bc366004613bf3565b6003602081815260009283526040928390208054600182015493820154600483015460058401546006850154885160c081018a5260078701548152600887015497810197909752600986015498870198909852600a8501546060870152600b8501546001600160a01b039081166080880152600c90950154851660a0870152929695841695919093169360ff9091169087565b6040516102989796959493929190613f94565b34801561076e57600080fd5b507f9016d09d72d40fdae2fd8ceac6b6234c7706214fd39c1cd1e609a0528c199300546040516001600160a01b039091168152602001610298565b3480156107b557600080fd5b506103506107c4366004613ecd565b60026020526000908152604090205481565b3480156107e257600080fd5b5061028c6107f1366004613d5d565b611cf5565b34801561080257600080fd5b50600754600854600954600a54600b54600c5461082d95949392916001600160a01b03908116911686565b6040805196875260208701959095529385019290925260608401526001600160a01b0390811660808401521660a082015260c001610298565b34801561087257600080fd5b50610350600081565b34801561088757600080fd5b5061089b610896366004613bf3565b611d2d565b6040516102989190613fe9565b3480156108b457600080fd5b506108d9604051806040016040528060058152602001640352e302e360dc1b81525081565b604051610298919061401b565b3480156108f257600080fd5b506102c1610901366004613bf3565b611d9f565b34801561091257600080fd5b506102c161092136600461404e565b611ed8565b34801561093257600080fd5b506102c1610941366004614083565b612009565b34801561095257600080fd5b506102c161096136600461409f565b612166565b34801561097257600080fd5b506102c1610981366004613bf3565b6122e6565b34801561099257600080fd5b506102c16109a1366004613ecd565b6125f5565b3480156109b257600080fd5b506102c16109c1366004613bf3565b61277f565b3480156109d257600080fd5b506102c16109e1366004613d5d565b612a07565b3480156109f257600080fd5b506102c1610a01366004613d5d565b612dda565b348015610a1257600080fd5b506102c1610a213660046140c9565b612df6565b348015610a3257600080fd5b50610a46610a41366004613d5d565b61315c565b60405161029891906140eb565b348015610a5f57600080fd5b506102c1610a6e366004613ecd565b613216565b348015610a7f57600080fd5b506103506000805160206144c583398151915281565b60006001600160e01b03198216637965db0b60e01b1480610ac657506301ffc9a760e01b6001600160e01b03198316145b92915050565b6000805160206144c5833981519152610ae481613251565b506001600160a01b03919091166000908152600660205260409020805460ff1916911515919091179055565b600081815260036020526040902060018101546001600160a01b03163314610b7f5760405162461bcd60e51b815260206004820152601c60248201527f6f6e6c7920656d706c6f7965722063616e20636c6f7365207461736b0000000060448201526064015b60405180910390fd5b600060068083015460ff1690811115610b9a57610b9a613c0c565b14610be75760405162461bcd60e51b815260206004820152601d60248201527f7461736b20737461747573206973206e6f74204576616c756174696e670000006044820152606401610b76565b60005b6002820154811015610cd9576000826002018281548110610c0d57610c0d614159565b60009182526020808320909101548683526004825260408084206001600160a01b039092168085529190925290822090925090600682810154610100900460ff1690811115610c5e57610c5e613c0c565b14610ca75760405162461bcd60e51b81526020600482015260196024820152787461736b6572206e6f742050656e64696e675369676e696e6760381b6044820152606401610b76565b60068101805461ff00191661060017905542600482015560006005909101555080610cd181614185565b915050610bea565b506006818101805460ff1916821790556040517f9a540c31e1133343cfeb167e272014874d07ee928d6e167571686745d32cfd2491610d1d9185913391819061419e565b60405180910390a15050565b600081815260036020526040902060018101546001600160a01b03163314610d935760405162461bcd60e51b815260206004820152601d60248201527f6f6e6c7920656d706c6f7965722063616e20616363657074207461736b0000006044820152606401610b76565b600460068083015460ff1690811115610dae57610dae613c0c565b14610e095760405162461bcd60e51b815260206004820152602560248201527f7461736b20737461747573206973206e6f742070656e64696e6720616363657060448201526474616e636560d81b6064820152608401610b76565b600082815260046020818152604080842060038601546001600160a01b0316855290915290912090600682810154610100900460ff1690811115610e4f57610e4f613c0c565b14610e9c5760405162461bcd60e51b815260206004820152601d60248201527f7461736b6572206e6f742070656e64696e6720616363657074616e63650000006044820152606401610b76565b6006818101805461050061ff0019909116178155600085815260056020818152604080842033808652925292839020426004820155600a88015481840155948701805460ff191683179055925491517fa5f087d626c7b95c38fbb89e448b6936b4a87a3df9a27c9fe89e8c7c54374a3a93610f24938993919261010090910460ff169061419e565b60405180910390a150505050565b610f3a613a58565b6000828152600360209081526040918290208251610100810184528154815260018201546001600160a01b03168184015260028201805485518186028101860187528181529295939493860193830182828015610fc057602002820191906000526020600020905b81546001600160a01b03168152600190910190602001808311610fa2575b505050918352505060038201546001600160a01b03166020820152600482015460408201526005820154606082015260068083015460809092019160ff169081111561100e5761100e613c0c565b600681111561101f5761101f613c0c565b81526040805160c081018252600784015481526008840154602082810191909152600985015492820192909252600a8401546060820152600b8401546001600160a01b039081166080830152600c9094015490931660a0840152015292915050565b60009081526000805160206144e5833981519152602052604090206001015490565b6110ac82611081565b6110b581613251565b6110bf838361325b565b50505050565b600081815260036020526040902060018101546001600160a01b03166110fd5760405162461bcd60e51b8152600401610b76906141db565b600360068083015460ff169081111561111857611118613c0c565b146111655760405162461bcd60e51b815260206004820152601e60248201527f7461736b20737461747573206973206e6f7420696e2070726f677265737300006044820152606401610b76565b6001810154336001600160a01b03909116036111c35760405162461bcd60e51b815260206004820152601c60248201527f656d706c6f7965722063616e206e6f74207375626d6974207461736b000000006044820152606401610b76565b60038101546001600160a01b031633146111ef5760405162461bcd60e51b8152600401610b7690614204565b600082815260046020908152604080832033845290915290206003600682810154610100900460ff169081111561122857611228613c0c565b1461126e5760405162461bcd60e51b81526020600482015260166024820152757461736b6572206e6f7420696e2070726f677265737360501b6044820152606401610b76565b6006818101805461040061ff0019909116178155908301805460ff1916600490811790915590546040517f21110e4fb5afc7cf223f073ddc7430acd603163abadb5d0dce043cefff0d7bea926112d1928792339291610100900460ff169061419e565b60405180910390a1505050565b6001600160a01b03811633146113075760405163334bd91960e11b815260040160405180910390fd5b6113118282613300565b505050565b6113586040518060c001604052806000815260200160006001600160a01b03168152602001600081526020016000815260200160008152602001600081525090565b5060008281526005602081815260408084206001600160a01b03808716865290835293819020815160c081018352815481526001820154909516928501929092526002820154908401526003810154606084015260048101546080840152015460a082015292915050565b6113cb61337c565b6113d482613421565b6113de8282613429565b5050565b6113ea6134e6565b600081815260036020526040902060018101546001600160a01b03166114225760405162461bcd60e51b8152600401610b76906141db565b60038101546001600160a01b0316331461144e5760405162461bcd60e51b8152600401610b7690614204565b600560068083015460ff169081111561146957611469613c0c565b146114b65760405162461bcd60e51b815260206004820152601c60248201527f7461736b20737461747573206973206e6f7420636f6d706c65746564000000006044820152606401610b76565b600082815260056020818152604080842060018601546001600160a01b0316855290915290912090810154600482015442916114f191614230565b111561153f5760405162461bcd60e51b815260206004820152601c60248201527f656d706c6f796572206e6f7420756e6c6f636b206475726174696f6e000000006044820152606401610b76565b600083815260046020908152604080832033845290915290206005600682810154610100900460ff169081111561157857611578613c0c565b146115bc5760405162461bcd60e51b81526020600482015260146024820152731d185cdad95c881b9bdd0818dbdb5c1b195d195960621b6044820152606401610b76565b8060030154826003015410156116145760405162461bcd60e51b815260206004820152601f60248201527f7461736b20617661696c61626c65416d6f756e74206e6f7420656e6f756768006044820152606401610b76565b806003015482600301600082825461162c9190614243565b90915550506009830154600382015460009160649161164b9190614256565b611655919061426d565b600b850154600c860154919250611679916001600160a01b0390811691168361351e565b600081836003015461168b9190614243565b600c8601549091506116a7906001600160a01b0316338361351e565b60408051878152336020820152908101839052606081018290527f3a2d48e8ad227ba21794a2e6a4fe66d5978ee892e45d772c80bc138130cccda29060800160405180910390a1505050505061170a600160008051602061450583398151915255565b50565b600061171761357d565b506000805160206144a583398151915290565b6117326134e6565b6000805160206144c583398151915261174a81613251565b600082815260036020526040902060018101546001600160a01b03166117825760405162461bcd60e51b8152600401610b76906141db565b6006818101805460ff1916909117905560005b60028201548110156118bc5760008260020182815481106117b8576117b8614159565b60009182526020808320909101548783526004825260408084206001600160a01b0390921680855291909252912090915060068082810154610100900460ff169081111561180857611808613c0c565b036118555760405162461bcd60e51b815260206004820152601c60248201527f7461736b6572207374616b656420616c726561647920636c6f736564000000006044820152606401610b76565b60068101805461060061ff001982161790915560ff16156118775750506118aa565b60068101805460ff191660011790556002810154600c8501546118a7916001600160a01b0390911690849061351e565b50505b806118b481614185565b915050611795565b5060008381526005602090815260408083206001850180546001600160a01b039081168652919093529083206003810180549490559154600c85015492939261190a9290811691168361351e565b604080518681523360208201527fb6e38f3f2f427815b019a29a65fdb7d7fb5d7aa8817fb25a6f176582e301c534910160405180910390a15050505061170a600160008051602061450583398151915255565b600081815260036020526040902060018101546001600160a01b03166119955760405162461bcd60e51b8152600401610b76906141db565b600260068083015460ff16908111156119b0576119b0613c0c565b146119fd5760405162461bcd60e51b815260206004820152601960248201527f7461736b20737461747573206973206e6f74207369676e6564000000000000006044820152606401610b76565b6001810154336001600160a01b0390911603611a5b5760405162461bcd60e51b815260206004820152601b60248201527f656d706c6f7965722063616e206e6f74207374617274207461736b00000000006044820152606401610b76565b60038101546001600160a01b03163314611a875760405162461bcd60e51b8152600401610b7690614204565b600082815260046020908152604080832033845290915290206002600682810154610100900460ff1690811115611ac057611ac0613c0c565b14611b015760405162461bcd60e51b81526020600482015260116024820152701d185cdad95c881b9bdd081cda59db9959607a1b6044820152606401610b76565b6006818101805461030061ff0019909116178155908301805460ff1916600390811790915590546040517f2b64782d46a4722f0887db61407c12a9d4caa300db61ac558f1eff2eec8a0b65926112d1928792339291610100900460ff169061419e565b611b6c6135c6565b611b766000613621565b565b6000805160206144c5833981519152611b9081613251565b815160641015611bb25760405162461bcd60e51b8152600401610b769061428f565b606482604001511115611bd75760405162461bcd60e51b8152600401610b76906142d4565b62093a8082602001511015611bfe5760405162461bcd60e51b8152600401610b7690614317565b6201518082606001511015611c255760405162461bcd60e51b8152600401610b769061436d565b60808201516001600160a01b0316611c7f5760405162461bcd60e51b815260206004820152601a60248201527f66656557616c6c65742063616e206e6f7420626520656d7074790000000000006044820152606401610b76565b50600091825260036020908152604092839020825160078201559082015160088201559181015160098301556060810151600a8301556080810151600b830180546001600160a01b03199081166001600160a01b039384161790915560a090920151600c90930180549092169216919091179055565b60009182526000805160206144e5833981519152602090815260408084206001600160a01b0393909316845291905290205460ff1690565b611d35613ac5565b50600090815260036020908152604091829020825160c08101845260078201548152600882015492810192909252600981015492820192909252600a8201546060820152600b8201546001600160a01b039081166080830152600c9092015490911660a082015290565b6000818152600360205260409020600101546001600160a01b031615611dfd5760405162461bcd60e51b81526020600482015260136024820152727461736b20616c72656164792065786973747360681b6044820152606401610b76565b600081815260036020526040812082815560018082018054336001600160a01b03199182161790915560068301805460ff1916905560078054908401556008805490840155600b8054908401805483166001600160a01b039283161790556009805490850155600a805490850155600c80549085018054909316911617905580549192611e8983614185565b9091555050600c81015460068201546040517f1e448e9e644620106aab28729d3809a8ae022b789fc34e1cace41b885aa4754c92610d1d92869233926001600160a01b03169160ff16906143bf565b611ee06134e6565b6000805160206144c5833981519152611ef881613251565b6000848152600360205260409020600101546001600160a01b0316611f2f5760405162461bcd60e51b8152600401610b76906141db565b60008481526005602090815260408083206001600160a01b038716845290915290206003810154831115611fb15760405162461bcd60e51b815260206004820152602360248201527f656d706c6f79657220617661696c61626c65416d6f756e74206e6f7420656e6f6044820152620eaced60eb1b6064820152608401610b76565b82816003016000828254611fc59190614243565b90915550506000858152600360205260409020600c0154611ff0906001600160a01b0316858561351e565b5050611311600160008051602061450583398151915255565b6000805160206144c583398151915261202181613251565b8151606410156120435760405162461bcd60e51b8152600401610b769061428f565b6064826040015111156120685760405162461bcd60e51b8152600401610b76906142d4565b62093a808260200151101561208f5760405162461bcd60e51b8152600401610b7690614317565b62015180826060015110156120b65760405162461bcd60e51b8152600401610b769061436d565b60808201516001600160a01b03166121105760405162461bcd60e51b815260206004820152601a60248201527f66656557616c6c65742063616e206e6f7420626520656d7074790000000000006044820152606401610b76565b508051600755602081015160085560408101516009556060810151600a556080810151600b80546001600160a01b03199081166001600160a01b039384161790915560a090920151600c80549093169116179055565b61216e6135c6565b6001600160a01b0382166121bc5760405162461bcd60e51b8152602060048201526015602482015274496e76616c696420546f6b656e204164647265737360581b6044820152606401610b76565b6001600160a01b0381166122045760405162461bcd60e51b815260206004820152600f60248201526e496e76616c6964204164647265737360881b6044820152606401610b76565b6040516370a0823160e01b81523060048201526000906001600160a01b038416906370a0823190602401602060405180830381865afa15801561224b573d6000803e3d6000fd5b505050506040513d601f19601f8201168201806040525081019061226f91906143e6565b60405163a9059cbb60e01b81526001600160a01b038481166004830152602482018390529192509084169063a9059cbb906044016020604051808303816000875af11580156122c2573d6000803e3d6000fd5b505050506040513d601f19601f820116820180604052508101906110bf91906143ff565b6122ee6134e6565b600081815260036020526040902060018101546001600160a01b03166123265760405162461bcd60e51b8152600401610b76906141db565b6000828152600460209081526040808320338452909152902080548084146123a15760405162461bcd60e51b815260206004820152602860248201527f7461736b4964206973206e6f7420657175616c20746f207374616b6564496e666044820152671bcb9d185cdad25960c21b6064820152608401610b76565b60018201546001600160a01b031633146123fd5760405162461bcd60e51b815260206004820152601c60248201527f7374616b656441646472206973206e6f74206d73672e73656e646572000000006044820152606401610b76565b6005600683810154610100900460ff169081111561241d5761241d613c0c565b148061244657506001600683810154610100900460ff169081111561244457612444613c0c565b145b806124f5575060068083810154610100900460ff169081111561246b5761246b613c0c565b14801561248b5750816005015482600401546124879190614230565b4210155b806124f55750600160068085015460ff16908111156124ac576124ac613c0c565b1480156124d657506000600683810154610100900460ff16908111156124d4576124d4613c0c565b145b80156124f55750600883015460058401546124f19190614230565b4210155b6125675760405162461bcd60e51b815260206004820152603e60248201527f7461736b6572206e6f7420636f6d706c65746564206f7220636c6f736564206f60448201527f72206e6f74207369676e6564207769746864726177206475726174696f6e00006064820152608401610b76565b60068201805460ff191660011790556002820154600c840154612597916001600160a01b0390911690339061351e565b60028201546040805186815233602082015280820192909252517f57365bd7ec5c65119feccc34693b851d3b0d6812f454a377067704b8008e57d19181900360600190a150505061170a600160008051602061450583398151915255565b7ff0c57e16840df040f15088dc2f81fe391c3923bec73e23a9662efc9c229c6a008054600160401b810460ff16159067ffffffffffffffff1660008115801561263b5750825b905060008267ffffffffffffffff1660011480156126585750303b155b905081158015612666575080155b156126845760405163f92ee8a960e01b815260040160405180910390fd5b845467ffffffffffffffff1916600117855583156126ae57845460ff60401b1916600160401b1785555b6126b733613692565b6126bf6136a3565b6126ca60003361325b565b506126e36000805160206144c58339815191523361325b565b50600a600781905562278d00600855600560095562093a809055600b8054336001600160a01b031991821617909155600c80549091166001600160a01b038816179055612731866001610acc565b831561277757845460ff60401b19168555604051600181527fc7f505b2f371ae2175ee4913f4499e1f2633a7b5936321eed1cdaeb6115181d29060200160405180910390a15b505050505050565b6000805160206144c583398151915261279781613251565b600082815260036020526040902060018101546001600160a01b031633146128015760405162461bcd60e51b815260206004820152601c60248201527f6f6e6c7920656d706c6f7965722063616e20636c6f7365207461736b000000006044820152606401610b76565b600160068083015460ff169081111561281c5761281c613c0c565b146128695760405162461bcd60e51b815260206004820152601d60248201527f7461736b20737461747573206973206e6f74204576616c756174696e670000006044820152606401610b76565b6008810154600582015461287d9190614230565b4210156128cc5760405162461bcd60e51b815260206004820152601760248201527f6e6f742072656163682077697468647261772074696d650000000000000000006044820152606401610b76565b60005b60028201548110156129c35760008260020182815481106128f2576128f2614159565b60009182526020808320909101548783526004825260408084206001600160a01b039092168085529190925290822090925090600682810154610100900460ff169081111561294357612943613c0c565b1461298c5760405162461bcd60e51b81526020600482015260196024820152787461736b6572206e6f742050656e64696e675369676e696e6760381b6044820152606401610b76565b60068101805461ff0019166106001790556005848101546004830155600885015491015550806129bb81614185565b9150506128cf565b506006818101805460ff1916821790556040517f9a540c31e1133343cfeb167e272014874d07ee928d6e167571686745d32cfd24916112d19186913391819061419e565b612a0f6134e6565b600082815260036020526040902060018101546001600160a01b03163314612a795760405162461bcd60e51b815260206004820152601b60248201527f6f6e6c7920656d706c6f7965722063616e207369676e207461736b00000000006044820152606401610b76565b600160068083015460ff1690811115612a9457612a94613c0c565b14612aec5760405162461bcd60e51b815260206004820152602260248201527f7461736b20737461747573206973206e6f742070656e64696e67207369676e696044820152616e6760f01b6064820152608401610b76565b60008381526004602090815260408083206001600160a01b038616845290915290208054808514612b535760405162461bcd60e51b81526020600482015260116024820152701d185cdad95c881b9bdd081cdd185ad959607a1b6044820152606401610b76565b6000600683810154610100900460ff1690811115612b7357612b73613c0c565b14612bcc5760405162461bcd60e51b8152602060048201526024808201527f7461736b657220737461747573206973206e6f742070656e64696e67207369676044820152636e696e6760e01b6064820152608401610b76565b6003820154600c840154612bef916001600160a01b0390911690339030906136ab565b6006828101805461ff001916610200179055600086815260056020908152604080832033808552925282208881556001810180546001600160a01b03199081169093179055600380870154600280840182905582840191909155948801805460ff191690951790945592860180549091166001600160a01b0388161790555b6002850154811015612d2257846002018181548110612c8f57612c8f614159565b60009182526020909120015460038601546001600160a01b03908116911614612d1057600087815260046020526040812060028701805483919085908110612cd957612cd9614159565b6000918252602080832091909101546001600160a01b031683528201929092526040019020600601805461ff001916610100179055505b80612d1a81614185565b915050612c6e565b508060020154600080828254612d389190614230565b909155505060028082015433600090815260209290925260408220805491929091612d64908490614230565b9091555050600680850154908401546040517ff316438040765f8629ddeccba3b77a8c80584504217f7d928b9afcca86b77bff92612db7928a9233928b9260ff918216926101009091049091169061441c565b60405180910390a1505050506113de600160008051602061450583398151915255565b612de382611081565b612dec81613251565b6110bf8383613300565b612dfe6134e6565b600082815260036020526040902060018101546001600160a01b0316612e365760405162461bcd60e51b8152600401610b76906141db565b6001810154336001600160a01b0390911603612e945760405162461bcd60e51b815260206004820152601e60248201527f656d706c6f7965722063616e206e6f74206576616c75617465207461736b00006044820152606401610b76565b600060068083015460ff1690811115612eaf57612eaf613c0c565b1480612ed35750600160068083015460ff1690811115612ed157612ed1613c0c565b145b612f375760405162461bcd60e51b815260206004820152602f60248201527f7461736b20737461747573206973206e6f74204576616c756174696e67206f7260448201526e2050656e64696e675369676e696e6760881b6064820152608401610b76565b60005b6002820154811015612fd157336001600160a01b0316826002018281548110612f6557612f65614159565b6000918252602090912001546001600160a01b031603612fbf5760405162461bcd60e51b81526020600482015260156024820152747461736b657220616c72656164792065786973747360581b6044820152606401610b76565b80612fc981614185565b915050612f3a565b506007810154600090606490612fe79085614256565b612ff1919061426d565b600c83015490915061300e906001600160a01b03163330846136ab565b60008481526004602090815260408083203380855292528220868155600180820180546001600160a01b03191690931790925560028101849055600381018690556006808201805461ff00191690558501805460ff1916909217909155600584015490910361307e574260058401555b600280840180546001810182556000918252602082200180546001600160a01b0319163317905590820154815490919081906130bb908490614230565b9091555050600280820154336000908152602092909252604082208054919290916130e7908490614230565b9091555050600680840154908201546040517fc8459114352b717a2bdd3ffac25167064badc55a49b8076f265b45ba2e9a92d29261313a92899233928a9260ff9182169261010090910490911690614462565b60405180910390a15050506113de600160008051602061450583398151915255565b613164613b0d565b60008381526004602081815260408084206001600160a01b03808816865290835293819020815161010080820184528254825260018301549096169381019390935260028101549183019190915260038101546060830152918201546080820152600582015460a082015260068083015460ff808216151560c0850152929460e0860193910416908111156131fb576131fb613c0c565b600681111561320c5761320c613c0c565b9052509392505050565b61321e6135c6565b6001600160a01b03811661324857604051631e4fbdf760e01b815260006004820152602401610b76565b61170a81613621565b61170a81336136e4565b60006000805160206144e58339815191526132768484611cf5565b6132f6576000848152602082815260408083206001600160a01b03871684529091529020805460ff191660011790556132ac3390565b6001600160a01b0316836001600160a01b0316857f2f8788117e7eff1d82e926ec794901d17c78024a50270940304540a733656f0d60405160405180910390a46001915050610ac6565b6000915050610ac6565b60006000805160206144e583398151915261331b8484611cf5565b156132f6576000848152602082815260408083206001600160a01b0387168085529252808320805460ff1916905551339287917ff6391f5c32d9c69d2a47ea670b442974b53935d1edc7fd64eb21e047a839171b9190a46001915050610ac6565b306001600160a01b037f000000000000000000000000000000000000000000000000000000000000000016148061340357507f00000000000000000000000000000000000000000000000000000000000000006001600160a01b03166133f76000805160206144a5833981519152546001600160a01b031690565b6001600160a01b031614155b15611b765760405163703e46dd60e11b815260040160405180910390fd5b61170a6135c6565b816001600160a01b03166352d1902d6040518163ffffffff1660e01b8152600401602060405180830381865afa925050508015613483575060408051601f3d908101601f19168201909252613480918101906143e6565b60015b6134ab57604051634c9c8ce360e01b81526001600160a01b0383166004820152602401610b76565b6000805160206144a583398151915281146134dc57604051632a87526960e21b815260048101829052602401610b76565b611311838361371d565b60008051602061450583398151915280546001190161351857604051633ee5aeb560e01b815260040160405180910390fd5b60029055565b6040516001600160a01b0383811660248301526044820183905261131191859182169063a9059cbb906064015b604051602081830303815290604052915060e01b6020820180516001600160e01b038381831617835250505050613773565b306001600160a01b037f00000000000000000000000000000000000000000000000000000000000000001614611b765760405163703e46dd60e11b815260040160405180910390fd5b336135f87f9016d09d72d40fdae2fd8ceac6b6234c7706214fd39c1cd1e609a0528c199300546001600160a01b031690565b6001600160a01b031614611b765760405163118cdaa760e01b8152336004820152602401610b76565b7f9016d09d72d40fdae2fd8ceac6b6234c7706214fd39c1cd1e609a0528c19930080546001600160a01b031981166001600160a01b03848116918217845560405192169182907f8be0079c531659141344cd1fd0a4f28419497f9722a3daafe3b4186f6b6457e090600090a3505050565b61369a6137d6565b61170a8161381f565b611b766137d6565b6040516001600160a01b0384811660248301528381166044830152606482018390526110bf9186918216906323b872dd9060840161354b565b6136ee8282611cf5565b6113de5760405163e2517d3f60e01b81526001600160a01b038216600482015260248101839052604401610b76565b61372682613827565b6040516001600160a01b038316907fbc7cd75a20ee27fd9adebab32041f755214dbc6bffa90cc0225b39da2e5c2d3b90600090a280511561376b57611311828261388c565b6113de613902565b60006137886001600160a01b03841683613921565b905080516000141580156137ad5750808060200190518101906137ab91906143ff565b155b1561131157604051635274afe760e01b81526001600160a01b0384166004820152602401610b76565b7ff0c57e16840df040f15088dc2f81fe391c3923bec73e23a9662efc9c229c6a0054600160401b900460ff16611b7657604051631afcd79f60e31b815260040160405180910390fd5b61321e6137d6565b806001600160a01b03163b60000361385d57604051634c9c8ce360e01b81526001600160a01b0382166004820152602401610b76565b6000805160206144a583398151915280546001600160a01b0319166001600160a01b0392909216919091179055565b6060600080846001600160a01b0316846040516138a99190614488565b600060405180830381855af49150503d80600081146138e4576040519150601f19603f3d011682016040523d82523d6000602084013e6138e9565b606091505b50915091506138f9858383613936565b95945050505050565b3415611b765760405163b398979f60e01b815260040160405180910390fd5b606061392f83836000613992565b9392505050565b60608261394b5761394682613a2f565b61392f565b815115801561396257506001600160a01b0384163b155b1561398b57604051639996b31560e01b81526001600160a01b0385166004820152602401610b76565b5092915050565b6060814710156139b75760405163cd78605960e01b8152306004820152602401610b76565b600080856001600160a01b031684866040516139d39190614488565b60006040518083038185875af1925050503d8060008114613a10576040519150601f19603f3d011682016040523d82523d6000602084013e613a15565b606091505b5091509150613a25868383613936565b9695505050505050565b805115613a3f5780518082602001fd5b604051630a12f52160e11b815260040160405180910390fd5b6040518061010001604052806000815260200160006001600160a01b031681526020016060815260200160006001600160a01b03168152602001600081526020016000815260200160006006811115613ab357613ab3613c0c565b8152602001613ac0613ac5565b905290565b6040518060c001604052806000815260200160008152602001600081526020016000815260200160006001600160a01b0316815260200160006001600160a01b031681525090565b6040518061010001604052806000815260200160006001600160a01b031681526020016000815260200160008152602001600081526020016000815260200160001515815260200160006006811115613ac057613ac0613c0c565b600060208284031215613b7a57600080fd5b81356001600160e01b03198116811461392f57600080fd5b80356001600160a01b0381168114613ba957600080fd5b919050565b801515811461170a57600080fd5b60008060408385031215613bcf57600080fd5b613bd883613b92565b91506020830135613be881613bae565b809150509250929050565b600060208284031215613c0557600080fd5b5035919050565b634e487b7160e01b600052602160045260246000fd5b6007811061170a57634e487b7160e01b600052602160045260246000fd5b613c4981613c22565b9052565b805182526020808201519083015260408082015190830152606080820151908301526080808201516001600160a01b039081169184019190915260a09182015116910152565b6020808252825182820152828101516001600160a01b039081166040808501919091528401516101a0606085015280516101c08501819052600093929183019184916101e08701905b80841015613cfe57845183168252938501936001939093019290850190613cdc565b5060608801516001600160a01b03811660808901529450608088015160a088015260a088015160c088015260c08801519450613d3d60e0880186613c40565b60e08801519450613d52610100880186613c4d565b979650505050505050565b60008060408385031215613d7057600080fd5b82359150613d8060208401613b92565b90509250929050565b8881526001600160a01b038816602082015260408101879052606081018690526080810185905260a0810184905282151560c08201526101008101613dcd83613c22565b8260e08301529998505050505050505050565b634e487b7160e01b600052604160045260246000fd5b604051601f8201601f1916810167ffffffffffffffff81118282101715613e1f57613e1f613de0565b604052919050565b60008060408385031215613e3a57600080fd5b613e4383613b92565b915060208084013567ffffffffffffffff80821115613e6157600080fd5b818601915086601f830112613e7557600080fd5b813581811115613e8757613e87613de0565b613e99601f8201601f19168501613df6565b91508082528784828501011115613eaf57600080fd5b80848401858401376000848284010152508093505050509250929050565b600060208284031215613edf57600080fd5b61392f82613b92565b600060c08284031215613efa57600080fd5b60405160c0810181811067ffffffffffffffff82111715613f1d57613f1d613de0565b806040525080915082358152602083013560208201526040830135604082015260608301356060820152613f5360808401613b92565b6080820152613f6460a08401613b92565b60a08201525092915050565b60008060e08385031215613f8357600080fd5b82359150613d808460208501613ee8565b8781526001600160a01b0387811660208301528616604082015260608101859052608081018490526101808101613fca84613c22565b8360a0830152613fdd60c0830184613c4d565b98975050505050505050565b60c08101610ac68284613c4d565b60005b83811015614012578181015183820152602001613ffa565b50506000910152565b602081526000825180602084015261403a816040850160208701613ff7565b601f01601f19169190910160400192915050565b60008060006060848603121561406357600080fd5b8335925061407360208501613b92565b9150604084013590509250925092565b600060c0828403121561409557600080fd5b61392f8383613ee8565b600080604083850312156140b257600080fd5b6140bb83613b92565b9150613d8060208401613b92565b600080604083850312156140dc57600080fd5b50508035926020909101359150565b6000610100820190508251825260018060a01b03602084015116602083015260408301516040830152606083015160608301526080830151608083015260a083015160a083015260c0830151151560c083015260e083015161414c81613c22565b8060e08401525092915050565b634e487b7160e01b600052603260045260246000fd5b634e487b7160e01b600052601160045260246000fd5b6000600182016141975761419761416f565b5060010190565b8481526001600160a01b0384166020820152608081016141bd84613c22565b8360408301526141cc83613c22565b82606083015295945050505050565b6020808252600f908201526e7461736b206e6f742065786973747360881b604082015260600190565b6020808252601290820152711d185cdad95c881b9bdd081b585d18da195960721b604082015260600190565b80820180821115610ac657610ac661416f565b81810381811115610ac657610ac661416f565b8082028115828204841417610ac657610ac661416f565b60008261428a57634e487b7160e01b600052601260045260246000fd5b500490565b60208082526025908201527f7461736b65725374616b6552617465206d757374206265206c6573732074686160408201526406e203130360dc1b606082015260800190565b60208082526023908201527f72657761726446656552617465206d757374206265206c657373207468616e2060408201526203130360ec1b606082015260800190565b60208082526036908201527f6e6f745369676e656457697468647261774475726174696f6e206d7573742062604082015275652067726561746572207468616e203330206461797360501b606082015260800190565b60208082526032908201527f72657761726457697468647261774475726174696f6e206d7573742062652067604082015271726561746572207468616e2037206461797360701b606082015260800190565b8481526001600160a01b03848116602083015283166040820152608081016141cc83613c22565b6000602082840312156143f857600080fd5b5051919050565b60006020828403121561441157600080fd5b815161392f81613bae565b8581526001600160a01b0385811660208301528416604082015260a0810161444384613c22565b83606083015261445283613c22565b8260808301529695505050505050565b8581526001600160a01b03851660208201526040810184905260a0810161444384613c22565b6000825161449a818460208701613ff7565b919091019291505056fe360894a13ba1a3210667c828492db98dca3e2076cc3735a920a3ca505d382bbc97667070c54ef182b0f5858b034beac1b6f3089aa2d3188bb1e8929f4fa9b92902dd7bc7dec4dceedda775e58dd541e08a116c6c53815c0bd028192f7b6268009b779b17422d0df92223018b32b4d1fa46e071723d6817e2486d003becc55f00a2646970667358221220d3ce33cb59aea0642f34e07d3a43bcffe386a1c763ea6206694988e383f67ad564736f6c63430008150033",
  "linkReferences": {},
  "deployedLinkReferences": {}
}